:10000000C2B47C0412003AC2B611817404C39C24A9
:1000100030F8A6F0DCEE11DD11DD11DD11DDD2B618
:1000200011AC400AC2B4C2B511CFD2B50102D2B4EC
:10003000C2B311D6C2B4D2B301027B321200515006
:10004000F9DBF9C0F07B3212005140F9DBF9D0F056
:100050002274FD7E03F5A0FFE5A054F0B4F007EF95
:1000600023DEF2C3801AFF7404C39EFEEFC47D0436
:100070001350050E0E0EDDF8BE0B027E00D38EF07F
:1000800022E5F0C0E024F6D0E04011119DC2B27D1F
:1000900008A2E792B011E623DDF7D2B2229000A2C7
:1000A00093223F065B4F666D7D077F677C04740477
:1000B000C39CC0E02430F88605D0E011C6B5050425
:1000C000DCECD322C3229000CB9322020600057FF2
:1000D0000A11DDDFFC227F1411DDDFFC227DC87EEA
:0B00E000FADEFEDDFA22D2B1C2B1222E
:00000001FF
