:100000007C0412000B1152DCF901007B3212002239
:1000100050F9DBF9C0F07B3212002240F9DBF9D055
:10002000F02274FD7E03F5A0FFE5A054F0B4F007C4
:10003000EF23DEF2C3801AFF7404C39EFEEFC47D7B
:10004000041350050E0E0EDDF8BE0B027E00D38E9B
:10005000F022E5F0C0E024F6D0E04011116EC2B20B
:100060007D08A2E792B0118623DDF7D2B22290007C
:100070007393223F065B4F666D7D077F679000821A
:0B008000932202060005D2B1C2B1229B
:00000001FF
